:020000040800F2
:1000000000500020B14A00082D4700083947000879
:100010003F470008454700084B4700080000000024
:10002000000000000000000000000000B11F0008F8
:10003000514700080000000091210008D921000864
:10004000F94A0008F94A0008F94A0008F94A000884
:10005000F94A0008F94A0008F94A0008F94A000874
:10006000F94A0008F94A0008F94A0008F94A000864
:10007000F94A0008F94A0008F94A0008F94A000854
:10008000F94A0008F94A0008F94A0008F94A000844
:10009000F94A0008F94A0008F94A0008F94A000834
:1000A000F94A0008F94A0008F94A0008F94A000824
:1000B0005D47000871470008F94A0008F94A00083E
:1000C000F94A0008F94A0008F94A0008F94A000804
:1000D000F94A0008F94A0008F94A0008F94A0008F4
:1000E000F94A0008F94A0008F94A0008000000002F
:1000F0000000000000000000000000000000000000
:0C01000000000000000000005FF808F1A3
:1001100010B5054C237833B9044B13B10448AFF341
:1001200000800123237010BD740000200000000037
:10013000285B000808B5034B1BB103490348AFF324
:10014000008008BD0000000078000020285B000847
:1001500080B500AF084B1B68074A43F010031360DB
:10016000032000F0D1F8002004F088FA04F04EFAE1
:100170000023184680BD00BF0020024080B400AFBD
:10018000054B1B781A46054B1B681344034A136042
:1001900000BFBD4680BC70470400002090000020D6
:1001A00080B400AF024B1B681846BD4680BC704748
:1001B0009000002080B485B000AF78607B6803F0C9
:1001C0000703FB600C4BDB68BB60BA684FF6FF03AC
:1001D0001340BB60FB681A02BB68134343F0BF6364
:1001E00043F40033BB60044ABB68D36000BF1437DC
:1001F000BD4680BC704700BF00ED00E080B400AF9A
:10020000044BDB681B0A03F007031846BD4680BC9D
:10021000704700BF00ED00E080B483B000AF03463C
:10022000FB7197F90730002B0BDBFB7903F01F0202
:10023000064997F907305B09012000FA02F241F8FC
:10024000232000BF0C37BD4680BC704700E100E0B2
:1002500080B483B000AF03463960FB7197F9073073
:10026000002B0ADB3B68DAB20C4997F90730120120
:10027000D2B20B4483F800230AE03B68DAB20849A3
:10028000FB7903F00F03043B1201D2B20B441A7640
:1002900000BF0C37BD4680BC704700BF00E100E0E6
:1002A00000ED00E080B489B000AFF860B9607A601A
:1002B000FB6803F00703FB61FB69C3F10703042B31
:1002C00028BF0423BB61FB690433062B02D9FB69F9
:1002D000033B00E000237B614FF0FF32BB6902FA71
:1002E00003F3DA43BB681A407B699A404FF0FF3151
:1002F0007B6901FA03F3D9437B680B40134318462B
:100300002437BD4680BC704780B582B000AF7860AE
:100310007868FFF74FFF00BF0837BD4680BD80B546
:1003200086B000AF0346B9607A60FB7300237B613F
:10033000FFF764FF78617A68B9687869FFF7B2FF00
:10034000024697F90F3011461846FFF781FF00BFAC
:100350001837BD4680BD80B582B000AF0346FB7143
:1003600097F907301846FFF757FF00BF0837BD461B
:1003700080BD000080B48BB000AF7860396000238E
:100380007B6200233B6269E101227B6A02FA03F38C
:10039000FB613B681B68FA691340BB61BA69FB6982
:1003A0009A4240F058813B685B689A4A93425ED01B
:1003B000984A934275D8984A934258D0964A9342A5
:1003C0006FD8964A934252D0944A934269D8944A3D
:1003D00093424CD0924A934263D8924A934246D079
:1003E000904A93425DD8122B2AD8122B59D801A2D9
:1003F00052F823F06F040008490400085B04000869
:100400009D040008A3040008A3040008A304000836
:10041000A3040008A3040008A3040008A304000820
:10042000A3040008A3040008A3040008A304000810
:10043000A3040008A3040008510400086504000890
:10044000794A934213D02CE03B68DB683B6229E099
:100450003B68DB6804333B6224E03B68DB680833BD
:100460003B621FE03B68DB680C333B621AE03B6891
:100470009B68002B02D104233B6213E03B689B681E
:10048000012B05D108233B627B68FA691A6109E0F8
:1004900008233B627B68FA695A6103E000233B62F0
:1004A00000E000BFBB69FF2B01D87B6801E07B68DF
:1004B00004337B61BB69FF2B02D87B6A9B0002E09F
:1004C0007B6A083B9B003B617B691A680F213B6993
:1004D00001FA03F3DB431A40396A3B6901FA03F37B
:1004E0001A437B691A603B685B6803F08053002BFA
:1004F00000F0B1804D4B9B694C4A43F0010393617E
:100500004A4B9B6903F00103BB60BB68484A7B6AA6
:100510009B08023352F82330FB607B6A03F003032D
:100520009B000F2202FA03F3DB43FA681340FB60DF
:100530007B68404A934213D07B683F4A93420DD078
:100540007B683E4A934207D07B683D4A934201D183
:10055000032306E0042304E0022302E0012300E079
:1005600000237A6A02F0030292009340FA68134370
:10057000FB602F497B6A9B080233FA6841F823200D
:100580003B685B6803F48033002B06D02D4B1A6860
:100590002C49BB6913430B6006E02A4B1A68BB6900
:1005A000DB43284913400B603B685B6803F400336E
:1005B000002B06D0234B5A682249BB6913434B607A
:1005C00006E0204B5A68BB69DB431E4913404B6071
:1005D0003B685B6803F48013002B06D0194B9A68C4
:1005E0001849BB6913438B6006E0164B9A68BB69D8
:1005F000DB43144913408B603B685B6803F40013D2
:10060000002B21D00F4BDA680E49BB691343CB6036
:1006100021E000BF00003210000031100000221065
:100620000000211000001210000011100010024004
:100630000000014000080140000C01400010014092
:1006400000140140000401400B4BDA68BB69DB4336
:1006500009491340CB607B6A01337B623B681A68AF
:100660007B6A22FA03F3002B7FF48EAE00BF00BF3B
:100670002C37BD4680BC70470004014080B485B073
:1006800000AF78600B467B807B689A687B8813405C
:10069000002B02D00123FB7301E00023FB73FB7BE3
:1006A00018461437BD4680BC704780B483B000AF95
:1006B00078600B467B8013467B707B78002B03D0E1
:1006C0007A887B681A6103E07B881A047B681A6168
:1006D00000BF0C37BD4680BC7047000080B586B0B7
:1006E00000AF78607B68002B01D101236CE27B684E
:1006F0001B6803F00103002B00F08780924B5B68BE
:1007000003F00C03042B0CD08F4B5B6803F00C033D
:10071000082B12D18C4B5B6803F48033B3F5803F18
:100720000BD1894B1B6803F40033002B6CD07B6822
:100730005B68002B68D1012346E27B685B68B3F5F8
:10074000803F06D1804B1B687F4A43F4803313609F
:100750002EE07B685B68002B0CD17B4B1B687A4AD0
:1007600023F480331360784B1B68774A23F480238B
:1007700013601DE07B685B68B3F5A02F0CD1724B52
:100780001B68714A43F4802313606F4B1B686E4AE9
:1007900043F4803313600BE06B4B1B686A4A23F40D
:1007A00080331360684B1B68674A23F4802313600F
:1007B0007B685B68002B13D0FFF7F2FC386108E020
:1007C000FFF7EEFC02463B69D31A642B01D90323E1
:1007D000FAE15D4B1B6803F40033002BF0D014E00A
:1007E000FFF7DEFC386108E0FFF7DAFC02463B6900
:1007F000D31A642B01D90323E6E1534B1B6803F49E
:100800000033002BF0D100E000BF7B681B6803F0D1
:100810000203002B63D04C4B5B6803F00C03002BEE
:100820000BD0494B5B6803F00C03082B1CD1464BE3
:100830005B6803F48033002B16D1434B1B6803F035
:100840000203002B05D07B681B69012B01D001231B
:10085000BAE13D4B1B6823F0F8027B685B69DB0063
:10086000394913430B603AE07B681B69002B20D0A9
:10087000364B01221A60FFF793FC386108E0FFF75E
:100880008FFC02463B69D31A022B01D903239BE15B
:100890002D4B1B6803F00203002BF0D02A4B1B6882
:1008A00023F0F8027B685B69DB00274913430B6088
:1008B00015E0264B00221A60FFF772FC386108E051
:1008C000FFF76EFC02463B69D31A022B01D90323C2
:1008D0007AE11D4B1B6803F00203002BF0D17B680B
:1008E0001B6803F00803002B3AD07B689B69002B40
:1008F00019D0174B01221A60FFF752FC386108E04B
:10090000FFF74EFC02463B69D31A022B01D90323A1
:100910005AE10D4B5B6A03F00203002BF0D001207B
:1009200000F008FB1CE00A4B00221A60FFF738FCBD
:1009300038610FE0FFF734FC02463B69D31A022B03
:1009400008D9032340E100BF0010024000004242EA
:10095000800442429E4B5B6A03F00203002BE9D104
:100960007B681B6803F00403002B00F0A6800023C3
:10097000FB75974BDB6903F08053002B0DD1944B33
:10098000DB69934A43F08053D361914BDB6903F0F9
:100990008053BB60BB680123FB758E4B1B6803F45F
:1009A0008073002B18D18B4B1B688A4A43F48073E9
:1009B0001360FFF7F5FB386108E0FFF7F1FB024633
:1009C0003B69D31A642B01D90323FDE0814B1B68DB
:1009D00003F48073002BF0D07B68DB68012B06D119
:1009E0007B4B1B6A7A4A43F0010313622DE07B685C
:1009F000DB68002B0CD1764B1B6A754A23F0010390
:100A00001362734B1B6A724A23F0040313621CE0E7
:100A10007B68DB68052B0CD16D4B1B6A6C4A43F07D
:100A2000040313626A4B1B6A694A43F001031362B1
:100A30000BE0674B1B6A664A23F001031362644BA9
:100A40001B6A634A23F0040313627B68DB68002B94
:100A500015D0FFF7A5FB38610AE0FFF7A1FB0246BE
:100A60003B69D31A41F28832934201D90323ABE0A8
:100A7000574B1B6A03F00203002BEED014E0FFF784
:100A80008FFB38610AE0FFF78BFB02463B69D31A04
:100A900041F28832934201D9032395E04C4B1B6A03
:100AA00003F00203002BEED1FB7D012B05D1484B57
:100AB000DB69474A23F08053D3617B68DB69002BF5
:100AC00000F08180424B5B6803F00C03082B61D07F
:100AD0007B68DB69022B46D13F4B00221A60FFF78F
:100AE0005FFB386108E0FFF75BFB02463B69D31A06
:100AF000022B01D9032367E0354B1B6803F0007319
:100B0000002BF0D17B681B6AB3F5803F08D1304BD6
:100B10005B6823F400327B689B682D4913434B606C
:100B20002B4B5B6823F474127B68196A7B685B6AE1
:100B30000B43274913434B60274B01221A60FFF7F1
:100B40002FFB386108E0FFF72BFB02463B69D31A05
:100B5000022B01D9032337E01D4B1B6803F0007300
:100B6000002BF0D02FE01C4B00221A60FFF718FB7F
:100B7000386108E0FFF714FB02463B69D31A022BE9
:100B800001D9032320E0124B1B6803F00073002BF4
:100B9000F0D118E07B68DB69012B01D1012313E060
:100BA0000B4B5B68FB60FB6803F480327B681B6A5D
:100BB0009A4206D1FB6803F470127B685B6A9A4222
:100BC00001D0012300E0002318461837BD4680BD40
:100BD00000100240007000406000424280B584B0C6
:100BE00000AF786039607B68002B01D10123D0E031
:100BF0006A4B1B6803F007033A689A4210D9674BA7
:100C00001B6823F0070265493B6813430B60634B85
:100C10001B6803F007033A689A4201D00123B8E049
:100C20007B681B6803F00203002B20D07B681B68E5
:100C300003F00403002B05D0594B5B68584A43F47A
:100C4000E06353607B681B6803F00803002B05D04A
:100C5000534B5B68524A43F460535360504B5B689C
:100C600023F0F0027B689B684D4913434B607B681F
:100C70001B6803F00103002B40D07B685B68012BED
:100C800007D1474B1B6803F40033002B15D1012318
:100C90007FE07B685B68022B07D1414B1B6803F048
:100CA0000073002B09D1012373E03D4B1B6803F057
:100CB0000203002B01D101236BE0394B5B6823F069
:100CC00003027B685B68364913434B60FFF768FAA1
:100CD000F8600AE0FFF764FA0246FB68D31A41F2B3
:100CE0008832934201D9032353E02D4B5B6803F014
:100CF0000C027B685B689B009A42EBD1274B1B6818
:100D000003F007033A689A4210D2244B1B6823F081
:100D1000070222493B6813430B60204B1B6803F01A
:100D200007033A689A4201D0012332E07B681B68CE
:100D300003F00403002B08D0194B5B6823F4E06236
:100D40007B68DB68164913434B607B681B6803F0C4
:100D50000803002B09D0124B5B6823F460527B68B8
:100D60001B69DB000E4913434B6000F021F802467B
:100D70000B4B5B681B0903F00F030A49CB5C22FA9B
:100D800003F3094A1360094B1B68184603F076FC0D
:100D9000002318461037BD4680BD00BF002002402A
:100DA00000100240585C00080C00002000000020E9
:100DB00090B48AB000AF2A4B3C1D0FCB84E80F00E3
:100DC00040F201233B800023FB610023BB61002331
:100DD0007B6200237B6100233B62224B5B68FB61EB
:100DE000FB6903F00C03042B02D0082B03D02DE089
:100DF0001D4B3B622DE0FB699B0C03F00F0307F1D9
:100E00002802134413F8243C7B61FB6903F480330C
:100E1000002B13D0134B5B685B0C03F0010307F14D
:100E20002802134413F8283CBB617B690E4A02FB7D
:100E300003F2BB69B2FBF3F37B6204E07B690B4A0C
:100E400002FB03F37B627B6A3B6202E0064B3B6280
:100E500000BF3B6A18462837BD4690BC704700BFAC
:100E6000405B00080010024000127A0000093D00BB
:100E700080B400AF024B1B681846BD4680BC70476B
:100E80000C00002080B500AFFFF7F2FF0246054BD3
:100E90005B681B0A03F007030349CB5C22FA03F3E8
:100EA000184680BD00100240685C000880B500AFA5
:100EB000FFF7DEFF0246054B5B68DB0A03F0070322
:100EC0000349CB5C22FA03F3184680BD00100240B0
:100ED000685C000880B483B000AF786039607B68DC
:100EE0000F221A60114B5B6803F003027B685A60A3
:100EF0000E4B5B6803F0F0027B689A600B4B5B68FB
:100F000003F4E0627B68DA60084B5B68DB0803F49B
:100F1000E0627B681A61064B1B6803F007023B68BE
:100F20001A6000BF0C37BD4680BC704700100240FD
:100F30000020024080B485B000AF78600A4B1B6887
:100F40000A4AA2FB03235B0A7A6802FB03F3FB60F5
:100F500000BFFB685A1EFA60002BF9D100BF00BF2A
:100F60001437BD4680BC70470C000020D34D621082
:100F700080B582B000AF78607B68002B01D101237F
:100F80001DE07B6893F83D30DBB2002B06D17B6817
:100F9000002283F83C20786803F0EEFC7B68022294
:100FA00083F83D207B681A687B6804331946104635
:100FB00000F01CFA7B68012283F83D2000231846CC
:100FC0000837BD4680BD80B485B000AF78607B68CF
:100FD0001B68DA687B681B6842F00102DA607B6894
:100FE0001B689B6803F00703FB60FB68062B07D0B8
:100FF0007B681B681A687B681B6842F001021A60F4
:10100000002318461437BD4680BC704780B582B0B7
:1010100000AF78607B681B681B6903F00203022B3A
:1010200022D17B681B68DB6803F00203022B1BD113
:101030007B681B686FF002021A617B6801221A77D5
:101040007B681B689B6903F00303002B03D078685F
:1010500000F0B1F905E0786800F0A4F9786800F0D4
:10106000B3F97B6800221A777B681B681B6903F061
:101070000403042B22D17B681B68DB6803F00403A4
:10108000042B1BD17B681B686FF004021A617B681C
:1010900002221A777B681B689B6903F44073002B5C
:1010A00003D0786800F087F905E0786800F07AF9F5
:1010B000786800F089F97B6800221A777B681B68E2
:1010C0001B6903F00803082B22D17B681B68DB68CF
:1010D00003F00803082B1BD17B681B686FF0080224
:1010E0001A617B6804221A777B681B68DB6903F04E
:1010F0000303002B03D0786800F05DF905E0786801
:1011000000F050F9786800F05FF97B6800221A77E8
:101110007B681B681B6903F01003102B22D17B68CE
:101120001B68DB6803F01003102B1BD17B681B6866
:101130006FF010021A617B6808221A777B681B68BF
:10114000DB6903F44073002B03D0786800F033F9B7
:1011500005E0786800F026F9786800F035F97B68DA
:1011600000221A777B681B681B6903F00103012BBF
:101170000ED17B681B68DB6803F00103012B07D1EC
:101180007B681B686FF001021A61786803F029FA26
:101190007B681B681B6903F08003802B0ED17B6882
:1011A0001B68DB6803F08003802B07D17B681B681A
:1011B0006FF080021A61786800F05DFA7B681B6846
:1011C0001B6903F04003402B0ED17B681B68DB6872
:1011D00003F04003402B07D17B681B686FF040028F
:1011E0001A61786800F0F9F87B681B681B6903F0E6
:1011F0002003202B0ED17B681B68DB6803F02003E3
:10120000202B07D17B681B686FF020021A61786879
:1012100000F028FA00BF0837BD4680BD80B584B015
:1012200000AF786039607B6893F83C30012B01D1C6
:101230000223B3E07B68012283F83C207B68022212
:1012400083F83D207B681B689B68FB60FB6823F08C
:101250007703FB60FB6823F47F43FB607B681B68BC
:10126000FA689A603B681B68B3F5005F3ED0B3F53F
:10127000005F00F28780B3F5805F00F08580B3F5F2
:10128000805F7FD8702B1AD0702B7BD8602B50D00A
:10129000602B77D8502B3CD0502B73D8402B58D094
:1012A000402B6FD8302B64D0302B6BD8202B60D0E4
:1012B000202B67D8002B5CD0102B5AD062E07B68C3
:1012C00018683B6899683B685A683B68DB6800F0BF
:1012D00066F97B681B689B68FB60FB6843F07703DB
:1012E000FB607B681B68FA689A604EE07B68186850
:1012F0003B6899683B685A683B68DB6800F04FF9C7
:101300007B681B689A687B681B6842F480429A601D
:101310003BE07B6818683B6859683B68DB681A46A5
:1013200000F0C6F87B681B685021184600F01DF9D4
:101330002BE07B6818683B6859683B68DB681A4695
:1013400000F0E4F87B681B686021184600F00DF996
:101350001BE07B6818683B6859683B68DB681A4685
:1013600000F0A6F87B681B684021184600F0FDF8E5
:101370000BE07B681A683B681B681946104600F052
:10138000F4F802E000BF00E000BF7B68012283F8B0
:101390003D207B68002283F83C200023184610374C
:1013A000BD4680BD80B483B000AF786000BF0C370D
:1013B000BD4680BC704780B483B000AF786000BF8A
:1013C0000C37BD4680BC704780B483B000AF7860F6
:1013D00000BF0C37BD4680BC704780B483B000AFFF
:1013E000786000BF0C37BD4680BC704780B485B0C4
:1013F00000AF786039607B681B68FB607B68294AB6
:1014000093420BD07B68B3F1804F07D07B68264AAC
:10141000934203D07B68254A934208D1FB6823F0AE
:101420007003FB603B685B68FA681343FB607B6892
:101430001C4A93420BD07B68B3F1804F07D07B6886
:10144000194A934203D07B68184A934208D1FB683B
:1014500023F44073FB603B68DB68FA681343FB606E
:10146000FB6823F080023B685B691343FB607B6889
:10147000FA681A603B689A687B68DA623B681A68A7
:101480007B689A627B68074A934203D13B681A697A
:101490007B681A637B6801225A6100BF1437BD461E
:1014A00080BC7047002C0140000400400008004050
:1014B00080B487B000AFF860B9607A60FB681B6ADF
:1014C0007B61FB681B6A23F00102FB681A62FB6800
:1014D0009B693B613B6923F0F0033B617B681B0127
:1014E0003A6913433B617B6923F00A037B617A69A4
:1014F000BB6813437B61FB683A699A61FB687A6950
:101500001A6200BF1C37BD4680BC704780B487B0EC
:1015100000AFF860B9607A60FB681B6A23F01002C4
:10152000FB681A62FB689B697B61FB681B6A3B6115
:101530007B6923F470437B617B681B037A691343E7
:101540007B613B6923F0A0033B61BB681B013A69E7
:1015500013433B61FB687A699A61FB683A691A62D6
:1015600000BF1C37BD4680BC704780B485B000AF5B
:10157000786039607B689B68FB60FB6823F07003D0
:10158000FB603A68FB68134343F00703FB607B682A
:10159000FA689A6000BF1437BD4680BC704780B4BB
:1015A00087B000AFF860B9607A603B60FB689B6809
:1015B0007B617B6923F47F437B613B681A027B6814
:1015C0001A43BB6813437A6913437B61FB687A69EA
:1015D0009A6000BF1C37BD4680BC704780B485B0A0
:1015E00000AF786039607B6893F83C30012B01D103
:1015F000022332E07B68012283F83C207B680222D0
:1016000083F83D207B681B685B68FB607B681B6818
:101610009B68BB60FB6823F07003FB603B681B6842
:10162000FA681343FB60BB6823F08003BB603B6830
:101630005B68BA681343BB607B681B68FA685A60D2
:101640007B681B68BA689A607B68012283F83D203A
:101650007B68002283F83C20002318461437BD46DF
:1016600080BC704780B483B000AF786000BF0C3797
:10167000BD4680BC704780B483B000AF786000BFC7
:101680000C37BD4680BC704780B582B000AF786033
:101690007B68002B01D101233FE07B6893F8393050
:1016A000DBB2002B06D17B68002283F838207868F3
:1016B00003F0B2F97B68242283F839207B681B6829
:1016C000DA687B681B6822F40052DA60786800F000
:1016D0000BF97B681B681A697B681B6822F49042CF
:1016E0001A617B681B685A697B681B6822F02A02B2
:1016F0005A617B681B68DA687B681B6842F4005299
:10170000DA607B680022DA637B68202283F8392064
:101710007B68202283F83A20002318460837BD460C
:1017200080BD80B588B002AFF860B9603B601346F9
:10173000FB8000237B61FB6893F83930DBB2202B00
:1017400040F08380BB68002B02D0FB88002B01D1C6
:1017500001237BE0FB6893F83830012B01D1022391
:1017600074E0FB68012283F83820FB680022DA630A
:10177000FB68212283F83920FEF712FD7861FB68AF
:10178000FA889A84FB68FA88DA8442E0FB68DB8C8A
:101790009BB2013B9AB2FB68DA84FB689B68B3F5A5
:1017A000805F22D13B6800937B6900228021F8682A
:1017B00000F050F80346002B01D0032346E0BB683D
:1017C0003B613B691B881A46FB681B68C2F3080231
:1017D0005A60FB681B69002B03D1BB680233BB60F6
:1017E00017E0BB680133BB6013E03B6800937B6983
:1017F00000228021F86800F02DF80346002B01D06C
:10180000032323E0BB685A1CBA601A78FB681B6884
:101810005A60FB68DB8C9BB2002BB7D13B6800930E
:101820007B6900224021F86800F014F80346002B81
:1018300001D003230AE0FB68202283F83920FB68EB
:10184000002283F83820002300E0022318461837CE
:10185000BD4680BD80B584B000AFF860B9603B6024
:101860001346FB712CE0BB69B3F1FF3F28D0BB6985
:10187000002B07D0FEF794FC02463B68D31ABA69E6
:101880009A421DD2FB681B68DA68FB681B6822F469
:10189000D072DA60FB681B685A69FB681B6822F02B
:1018A00001025A61FB68202283F83920FB6820225C
:1018B00083F83A20FB68002283F8382003230FE0E6
:1018C000FB681B681A68BB681340BA689A420CBF71
:1018D00001230023DBB21A46FB799A42C3D00023CE
:1018E00018461037BD4680BD80B584B000AF786023
:1018F0007B681B681B6923F440517B68DA687B684E
:101900001B680A431A617B689A687B681B691A43E3
:101910007B685B691343FB607B681B68DB6823F4AF
:10192000B05323F00C037A681268F9680B43D36054
:101930007B681B685B6923F440717B689A697B68EC
:101940001B680A435A617B681B68524A93424ED116
:10195000FFF7ACFAB860BA6813469B0013449A00CC
:101960001A447B685B689B00B2FBF3F34A4AA2FB14
:1019700003235B091901BA6813469B0013449A00BC
:101980001A447B685B689B00B2FBF3F2424BA3FBFB
:1019900002035B09642000FB03F3D31A1B013233FB
:1019A0003D4AA2FB03235B0903F0F0031944BA6824
:1019B00013469B0013449A001A447B685B689B00A3
:1019C000B2FBF3F2344BA3FB02035B09642000FB80
:1019D00003F3D31A1B0132332F4AA2FB03235B0903
:1019E00003F00F027B681B680A449A604DE0FFF722
:1019F00049FAB860BA6813469B0013449A001A4427
:101A00007B685B689B00B2FBF3F3234AA2FB0323D2
:101A10005B091901BA6813469B0013449A001A44E3
:101A20007B685B689B00B2FBF3F21B4BA3FB0203DA
:101A30005B09642000FB03F3D31A1B013233164AFF
:101A4000A2FB03235B0903F0F0031944BA681346B1
:101A50009B0013449A001A447B685B689B00B2FBAE
:101A6000F3F20D4BA3FB02035B09642000FB03F3BD
:101A7000D31A1B013233084AA2FB03235B0903F08C
:101A80000F027B681B680A449A6000BF1037BD468E
:101A900080BD00BF003801401F85EB5180B485B088
:101AA00000AF0346FB800023FB60B7F90630842BB0
:101AB00005D0B7F90620FB6813440333FB60FB68CD
:101AC00018461437BD4680BC704780B483B000AF61
:101AD000EFF305837B607B68002B14BF0123002399
:101AE000DBB218460C37BD4680BC704780B500AFEE
:101AF00001F006FD0023184680BDF0B589B004AFA3
:101B0000786039607B685B69002B20D07B689B69BB
:101B1000002B1CD07B685C687B681D687B681E6935
:101B20007B68B3F908301846FFF7B8FF01467B68B9
:101B30005B697A6892690292019300913B68324630
:101B40002946204601F01DFB0346FB601CE07B6834
:101B50005C687B681D687B681B699EB27B68B3F913
:101B600008301846FFF79AFF024607F10C0301936D
:101B700000923B6832462946204601F05EFB034650
:101B8000012B01D0002300E0FB6818461437BD4646
:101B9000F0BD80B584B000AF78607B68FB60FB6807
:101BA000002B01D0FB6800E00123184601F074FC13
:101BB000002318461037BD4680BD90B585B002AFF2
:101BC000786039607B689B68002B11D07B68DB688C
:101BD000002B0DD07B6818687B6859687B689A6811
:101BE0007B68DB680024009400F0B8FD034608E041
:101BF0007B6818687B685B680022194600F025FE48
:101C0000034618460C37BD4690BD000080B586B02F
:101C100000AFF860B9607A6000233B617B687B614C
:101C20007B69002B01D101237B61FFF74EFF034647
:101C3000002B18D007F1100207F108010023F86803
:101C400000F05EFF0346012B01D0FF2318E03B6943
:101C5000002B14D00C4B4FF080521A60BFF34F8F03
:101C6000BFF36F8F0BE007F1080100237A69F86872
:101C700000F048FE0346012B01D0FF2300E00023C3
:101C800018461837BD4680BD04ED00E090B58BB016
:101C900000AFF860B9607A60BB68FB610023BB618C
:101CA000BB68002B0AD180237B61FB681C4607F1CF
:101CB000140393E8070084E8070054E000233B6224
:101CC00000237B627B68B3F1FF3F03D14FF0FF330A
:101CD0007B6209E07B68002B06D07B687B627B6AB5
:101CE000002B01D101237B62FFF7EFFE0346002B9F
:101CF0001CD007F1200207F1140304331946B86819
:101D000001F076F80346012B02D110237B6101E03C
:101D100000237B613B6A002B1DD0154B4FF0805296
:101D20001A60BFF34F8FBFF36F8F14E007F11403F6
:101D300004337A6A1946B86800F07AFF0346012B2B
:101D400002D110237B6106E07B6A002B01D10023C6
:101D500000E040237B61FB681C4607F1140393E815
:101D6000070084E80700F8682C37BD4690BD00BF27
:101D700004ED00E080B582B000AF7860FFF7A5FE0B
:101D80000346002B04D0786801F0D0F8034603E046
:101D9000786801F0ADF8034618460837BD4680BDA7
:101DA00080B483B000AF78607B6803F108027B6881
:101DB0005A607B684FF0FF329A607B6803F108023B
:101DC0007B68DA607B6803F108027B681A617B68D4
:101DD00000221A6000BF0C37BD4680BC704780B43B
:101DE00083B000AF78607B6800221A6100BF0C37B7
:101DF000BD4680BC704780B485B000AF7860396064
:101E00007B685B68FB603B68FA685A60FB689A68AD
:101E10003B689A60FB689B683A685A60FB683A685E
:101E20009A603B687A681A617B681B685A1C7B68F9
:101E30001A6000BF1437BD4680BC704780B485B0BF
:101E400000AF786039603B681B68BB60BB68B3F16A
:101E5000FF3F03D17B681B69FB600CE07B680833A4
:101E6000FB6002E0FB685B68FB60FB685B681B680B
:101E7000BA689A42F6D2FB685A683B685A603B6877
:101E80005B683A689A603B68FA689A60FB683A68EF
:101E90005A603B687A681A617B681B685A1C7B68C9
:101EA0001A6000BF1437BD4680BC704780B485B04F
:101EB00000AF78607B681B69FB607B685B687A6851
:101EC00092689A607B689B687A6852685A60FB687F
:101ED0005B687A689A4203D17B689A68FB685A60AB
:101EE0007B6800221A61FB681B685A1EFB681A6037
:101EF000FB681B6818461437BD4680BC704700005D
:101F000080B485B000AFF860B9607A60FB68043BCC
:101F1000FB60FB684FF080721A60FB68043BFB605B
:101F2000BB6823F00102FB681A60FB68043BFB609E
:101F3000084AFB681A60FB68143BFB607A68FB6820
:101F40001A60FB68203BFB60FB6818461437BD46EF
:101F500080BC7047591F000880B485B000AF0023D3
:101F60007B60124B1B68B3F1FF3F0AD04FF0500368
:101F700083F31188BFF36F8FBFF34F8FFB6000BFF8
:101F8000FEE74FF0500383F31188BFF36F8FBFF369
:101F90004F8FBB6000BF00BF7B68002BFCD000BF31
:101FA00000BF1437BD4680BC704700BF080000204A
:101FB000074B19680868B0E8F00F80F30988BFF391
:101FC0006F8F4FF0000080F311884EF00D0E7047B8
:101FD000B40C002000BF00BF06480068006880F312
:101FE000088862B661B6BFF34F8FBFF36F8F00DF13
:101FF00000BF00BF08ED00E080B584B000AF324BF9
:10200000FB60FB681B78DBB27B60FB68FF221A7009
:10201000FB681B78DBB2FB70FB78DBB203F050038C
:10202000DAB22A4B1A702A4B07221A6009E0284BB1
:102030001B68013B264A1360FB78DBB25B00DBB216
:10204000FB70FB78DBB203F08003802BEFD0204BDA
:102050001B68C3F10703042B0AD04FF0500383F32E
:102060001188BFF36F8FBFF34F8FBB6000BFFEE7D8
:10207000174B1B681B02164A1360154B1B6803F4B1
:10208000E063134A13607B68DAB2FB681A70114B85
:102090001B68104A43F4700313600E4B1B680D4A13
:1020A00043F07043136000F0B9F80B4B00221A6044
:1020B000FFF792FF01F0ECFBFFF74EFF00231846FD
:1020C0001037BD4680BD00BF00E400E09400002052
:1020D0009800002020ED00E00800002080B483B0CC
:1020E00000AF4FF0500383F31188BFF36F8FBFF33E
:1020F0004F8F7B6000BF0F4B1B6801330D4A13608D
:102100000C4B1B68012B0FD10B4B1B68DBB2002B58
:102110000AD04FF0500383F31188BFF36F8FBFF3E2
:102120004F8F3B6000BFFEE700BF0C37BD4680BC51
:10213000704700BF0800002004ED00E080B483B0C9
:1021400000AF114B1B68002B0AD14FF0500383F3F3
:102150001188BFF36F8FBFF34F8F7B6000BFFEE727
:10216000094B1B68013B084A1360074B1B68002B97
:1021700005D100233B603B6883F3118800BF00BF9B
:102180000C37BD4680BC70470800002000000000EE
:10219000EFF30980BFF36F8F0D4B1A6820E9F00F42
:1021A00010602DE908404FF0500080F3118801F0D5
:1021B0006FFB4FF0000080F31188BDE808401968FC
:1021C0000868B0E8F00F80F30988BFF36F8F70479D
:1021D000B40C002000BF00BF80B582B000AF4FF04C
:1021E000500383F31188BFF36F8FBFF34F8F7B6072
:1021F00000BF01F08FFA0346002B03D0064B4FF0CF
:1022000080521A6000233B603B6883F3118800BF53
:1022100000BF0837BD4680BD04ED00E080B400AFCC
:102220000A4B00221A600A4B00221A60094B1B68F5
:10223000094AA2FB03239B09084A013B1360034B95
:1022400007221A6000BFBD4680BC704710E000E066
:1022500018E000E00C000020D34D621014E000E014
:1022600080B485B000AFEFF30583FB60FB680F2BF4
:1022700014D9164AFB6813441B78FB72144B1B7865
:10228000FA7A9A420AD24FF0500383F31188BFF3CF
:102290006F8FBFF34F8F7B6000BFFEE70D4B1B6856
:1022A00003F4E0620C4B1B689A420AD94FF05003CA
:1022B00083F31188BFF36F8FBFF34F8F3B6000BF75
:1022C000FEE700BF1437BD4680BC7047F0E300E076
:1022D000940000200CED00E09800002080B58AB04A
:1022E00000AF78600023FB6101F06AF9584B1B686E
:1022F000002B01D100F010F9564B1A687B6813408F
:10230000002B40F08E807B68002B1DD008227B685C
:1023100013447B607B6803F00703002B14D07B68B9
:1023200023F0070308337B607B6803F00703002B6F
:102330000AD04FF0500383F31188BFF36F8FBFF3C0
:102340004F8F7B6100BFFEE77B68002B69D0424B5B
:102350001B687A689A4264D8404B3B623F4B1B68CB
:102360007B6204E07B6A3B627B6A1B687B627B6A00
:102370005B687A689A4203D97B6A1B68002BF1D1AB
:10238000334B1B687A6A9A424BD03B6A1B6808221F
:102390001344FB617B6A1A683B6A1A607B6A5A685D
:1023A0007B68D21A08235B009A421FD97A6A7B683D
:1023B0001344BB61BB6903F00703002B0AD04FF045
:1023C000500383F31188BFF36F8FBFF34F8F3B61CF
:1023D00000BFFEE77B6A5A687B68D21ABB695A6005
:1023E0007B6A7A685A60B86900F0F8F81A4B1A6884
:1023F0007B6A5B68D31A184A1360174B1A68184B2C
:102400001B689A4203D2144B1B68154A13607B6AFF
:102410005A68104B1B681A437B6A5A607B6A002219
:102420001A6001F0DBF8FB6903F00703002B0AD008
:102430004FF0500383F31188BFF36F8FBFF34F8FBB
:10244000FB6000BFFEE7FB6918462837BD4680BD2C
:10245000A40C0020B00C0020A80C00209C0C002034
:10246000AC0C002080B586B000AF78607B687B61E3
:102470007B68002B48D008235B427A6913447B6158
:102480007B693B613B695A68214B1B681340002BF9
:102490000AD14FF0500383F31188BFF36F8FBFF35E
:1024A0004F8FFB6000BFFEE73B691B68002B0AD023
:1024B0004FF0500383F31188BFF36F8FBFF34F8F3B
:1024C000BB6000BFFEE73B695A68114B1B681340B5
:1024D000002B19D03B691B68002B15D13B695A684A
:1024E0000B4B1B68DB431A403B695A6001F068F8EC
:1024F0003B695A68074B1B681344064A13603869E6
:1025000000F06CF801F06AF800BF1837BD4680BDD6
:10251000B00C0020A80C002080B485B000AF4FF4B0
:102520004063BB60274BFB60FB6803F00703002B95
:102530000CD0FB680733FB60FB6823F00703FB60EC
:10254000BA68FB68D31A1F4A1344BB60FB687B6000
:102550001D4A7B6813601C4B00225A607B68BA6876
:102560001344FB600822FB689B1AFB60FB6823F0A6
:102570000703FB60FB68154A1360144B1B680022BD
:102580005A60124B1B6800221A607B683B603B68F4
:10259000FA68D21A3B685A600C4B1A683B681A609A
:1025A0003B685B680A4A13603B685B68094A1360D2
:1025B000094B4FF000421A6000BF1437BD4680BC83
:1025C000704700BF9C0000209C0C0020A40C002041
:1025D000AC0C0020A80C0020B00C002080B485B00A
:1025E00000AF7860274BFB6002E0FB681B68FB6074
:1025F000FB681B687A689A42F7D8FB68BB60FB6887
:102600005B68BA6813447A689A4208D1FB685A68D2
:102610007B685B681A44FB685A60FB687B607B6878
:10262000BB607B685B68BA681A44FB681B689A42A7
:1026300018D1FB681A68144B1B689A420DD07B684E
:102640005A68FB681B685B681A447B685A60FB68C1
:102650001B681A687B681A6008E00B4B1A687B6875
:102660001A6003E0FB681A687B681A60FA687B6886
:102670009A4202D0FB687A681A6000BF1437BD46E0
:1026800080BC70479C0C0020A40C002080B584B056
:1026900000AF786039607B68FB60FB68002B0AD173
:1026A0004FF0500383F31188BFF36F8FBFF34F8F49
:1026B000BB6000BFFEE7FFF711FDFB681A68FB680F
:1026C000DB6BF968096C01FB03F31A44FB685A6081
:1026D000FB6800229A63FB681A68FB689A60FB68D3
:1026E0001A68FB68DB6B013BF968096C01FB03F3BB
:1026F0001A44FB68DA60FB68FF2283F84420FB6819
:10270000FF2283F845203B68002B14D1FB681B692E
:10271000002B1AD0FB681033184601F037F9034636
:10272000002B12D00C4B4FF080521A60BFF34F8F2A
:10273000BFF36F8F09E0FB6810331846FFF730FBDB
:10274000FB6824331846FFF72BFBFFF7F7FC012348
:1027500018461037BD4680BD04ED00E080B58EB050
:1027600002AFF860B9607A603B60FB68002B0AD169
:102770004FF0500383F31188BFF36F8FBFF34F8F78
:10278000BB6200BFFEE73B68002B0AD14FF050034D
:1027900083F31188BFF36F8FBFF34F8F7B6200BF4E
:1027A000FEE77B68002B02D0BB68002B01D0012321
:1027B00000E00023002B0AD14FF0500383F311886F
:1027C000BFF36F8FBFF34F8F3B6200BFFEE77B68A5
:1027D000002B02D1BB68002B01D1012300E00023B4
:1027E000002B0AD14FF0500383F31188BFF36F8F92
:1027F000BFF34F8FFB6100BFFEE748237B617B691E
:10280000482B0AD04FF0500383F31188BFF36F8F2A
:10281000BFF34F8FBB6100BFFEE73B68FB62FB6A03
:10282000002B0DD0FB6A012283F8462097F8382050
:10283000FB6A009313467A68B968F86800F043F8B9
:10284000FB6A18463037BD4680BD80B58AB002AFFE
:10285000F860B9601346FB71FB68002B0AD14FF09A
:10286000500383F31188BFF36F8FBFF34F8F3B612A
:1028700000BFFEE7BB68002B02D10023FB6104E030
:10288000FB68BA6802FB03F3FB61FB694833184637
:10289000FFF724FDB861BB69002B0FD0BB6948333B
:1028A0007B61BB69002283F84620FA79BB690093FB
:1028B00013467A69B968F86800F005F8BB691846EC
:1028C0002037BD4680BD80B584B000AFF860B960E8
:1028D0007A60FB70BB68002B03D1BB69BA691A60D0
:1028E00002E0BB697A681A60BB69FA68DA63BB699F
:1028F000BA681A640121B869FFF7C8FE00BF103733
:10290000BD4680BD80B58EB000AFF860B9607A601A
:102910003B6000237B63FB683B633B6B002B0AD16E
:102920004FF0500383F31188BFF36F8FBFF34F8FC6
:10293000BB6200BFFEE7BB68002B03D13B6B1B6C87
:10294000002B01D1012300E00023002B0AD14FF01E
:10295000500383F31188BFF36F8FBFF34F8F7B62F8
:1029600000BFFEE73B68022B03D13B6BDB6B012B07
:1029700001D1012300E00023002B0AD14FF05003C6
:1029800083F31188BFF36F8FBFF34F8F3B6200BF9C
:10299000FEE701F0BBF90346002B02D17B68002B58
:1029A00001D1012300E00023002B0AD14FF0500396
:1029B00083F31188BFF36F8FBFF34F8FFB6100BFAD
:1029C000FEE7FFF78BFB3B6B9A6B3B6BDB6B9A4233
:1029D00002D33B68022B29D13A68B968386B00F002
:1029E000C0FAF8623B6B5B6A002B10D03B6B243360
:1029F000184600F0CBFF0346002B13D03F4B4FF09F
:102A000080521A60BFF34F8FBFF36F8F0AE0FB6AEB
:102A1000002B07D0394B4FF080521A60BFF34F8F15
:102A2000BFF36F8FFFF78AFB012363E07B68002B06
:102A300003D1FFF783FB00235CE07B6B002B06D107
:102A400007F11403184601F003F801237B63FFF735
:102A500075FB00F0B5FDFFF741FB3B6B93F844308D
:102A60005BB2B3F1FF3F03D13B6B002283F84420FC
:102A70003B6B93F845305BB2B3F1FF3F03D13B6B47
:102A8000002283F84520FFF759FB3A1D07F1140394
:102A90001146184600F0F2FF0346002B24D1386B94
:102AA00000F057FB0346002B18D03B6B10337A68BD
:102AB0001146184600F046FF386B00F0E2FA00F0CD
:102AC0008DFD0346002B7FF47CAF0C4B4FF0805202
:102AD0001A60BFF34F8FBFF36F8F72E7386B00F050
:102AE000D0FA00F07BFD6CE7386B00F0CAFA00F01A
:102AF00075FD002318463837BD4680BD04ED00E063
:102B000080B58EB000AFF860B9607A603B60FB685A
:102B10003B633B6B002B0AD14FF0500383F31188CA
:102B2000BFF36F8FBFF34F8F7B6200BFFEE7BB68C1
:102B3000002B03D13B6B1B6C002B01D1012300E068
:102B40000023002B0AD14FF0500383F31188BFF309
:102B50006F8FBFF34F8F3B6200BFFEE73B68022BD6
:102B600003D13B6BDB6B012B01D1012300E0002380
:102B7000002B0AD14FF0500383F31188BFF36F8FFE
:102B8000BFF34F8FFB6100BFFEE7FFF769FBEFF379
:102B900011824FF0500383F31188BFF36F8FBFF39F
:102BA0004F8FBA617B61BB69FB623B6B9A6B3B6B7E
:102BB000DB6B9A4202D33B68022B2CD13B6B93F820
:102BC000453087F82B303A68B968386B00F0C9F99E
:102BD00097F92B30B3F1FF3F12D13B6B5B6A002BAF
:102BE00016D03B6B2433184600F0D0FE0346002B72
:102BF0000ED07B68002B0BD07B6801221A6007E0A7
:102C000097F82B300133DBB25AB23B6B83F8452087
:102C100001237B6301E000237B63FB6A3B613B692B
:102C200083F3118800BF7B6B18463837BD4680BDE3
:102C300080B58CB000AFF860B9607A600023FB62A9
:102C4000FB68BB62BB6A002B0AD14FF0500383F3D1
:102C50001188BFF36F8FBFF34F8F3B6200BFFEE75A
:102C6000BB68002B03D1BB6A1B6C002B01D1012375
:102C700000E00023002B0AD14FF0500383F31188AA
:102C8000BFF36F8FBFF34F8FFB6100BFFEE701F013
:102C90003DF80346002B02D17B68002B01D10123B4
:102CA00000E00023002B0AD14FF0500383F311887A
:102CB000BFF36F8FBFF34F8FBB6100BFFEE7FFF71E
:102CC0000DFABB6A9B6B7B627B6A002B1FD0B968D5
:102CD000B86A00F0B0F97B6A5A1EBB6A9A63BB6A95
:102CE0001B69002B0FD0BB6A1033184600F04EFE54
:102CF0000346002B07D03D4B4FF080521A60BFF3C4
:102D00004F8FBFF36F8FFFF719FA012369E07B68DC
:102D1000002B03D1FFF712FA002362E0FB6A002BBD
:102D200006D107F11003184600F092FE0123FB6262
:102D3000FFF704FA00F044FCFFF7D0F9BB6A93F800
:102D400044305BB2B3F1FF3F03D1BB6A002283F88A
:102D50004420BB6A93F845305BB2B3F1FF3F03D127
:102D6000BB6A002283F84520FFF7E8F93A1D07F116
:102D700010031146184600F081FE0346002B23D1B4
:102D8000B86A00F0D0F90346002B17D0BB6A243391
:102D90007A681146184600F0D5FDB86A00F071F95E
:102DA00000F01CFC0346002B89D1104B4FF08052E1
:102DB0001A60BFF34F8FBFF36F8F80E7B86A00F0E0
:102DC00060F900F00BFC7AE7B86A00F05AF900F0FD
:102DD00005FCB86A00F0A7F90346002B3FF46FAF7B
:102DE000002318463037BD4680BD00BF04ED00E02B
:102DF00080B58EB000AFF860B9607A60FB683B6365
:102E00003B6B002B0AD14FF0500383F31188BFF3C3
:102E10006F8FBFF34F8F3B6200BFFEE7BB68002B95
:102E200003D13B6B1B6C002B01D1012300E000237D
:102E3000002B0AD14FF0500383F31188BFF36F8F3B
:102E4000BFF34F8FFB6100BFFEE7FFF709FAEFF317
:102E500011824FF0500383F31188BFF36F8FBFF3DC
:102E60004F8FBA617B61BB69FB623B6B9B6BBB6243
:102E7000BB6A002B2FD03B6B93F8443087F8273088
:102E8000B968386B00F0D7F8BB6A5A1E3B6B9A637F
:102E900097F92730B3F1FF3F12D13B6B1B69002B31
:102EA00016D03B6B1033184600F070FD0346002B24
:102EB0000ED07B68002B0BD07B6801221A6007E0E4
:102EC00097F827300133DBB25AB23B6B83F84420CA
:102ED00001237B6301E000237B63FB6A3B613B6969
:102EE00083F3118800BF7B6B18463837BD4680BD21
:102EF00080B584B000AF78607B68002B0AD14FF0BA
:102F0000500383F31188BFF36F8FBFF34F8FBB6004
:102F100000BFFEE7FFF7E2F87B689B6BFB60FFF703
:102F20000DF9FB6818461037BD4680BD80B485B0EA
:102F300000AF78607B68002B0AD14FF0500383F319
:102F40001188BFF36F8FBFF34F8FBB6000BFFEE7E9
:102F50007B689B6BFB60FB6818461437BD4680BCE2
:102F6000704780B586B000AFF860B9607A60002322
:102F70007B61FB689B6B3B61FB681B6C002B0DD17D
:102F8000FB681B68002B4DD1FB685B68184600F09E
:102F9000DBFE7861FB6800225A6043E07B68002B0F
:102FA00019D1FB689868FB681B6C1A46B96801F078
:102FB000CFFDFB689A68FB681B6C1A44FB689A603B
:102FC000FB689A68FB685B689A422BD3FB681A68B7
:102FD000FB689A6026E0FB68D868FB681B6C1A46A1
:102FE000B96801F0B5FDFB68DA68FB681B6C5B42F1
:102FF0001A44FB68DA60FB68DA68FB681B689A426F
:1030000007D2FB685A68FB681B6C5B421A44FB687A
:10301000DA607B68022B05D13B69002B02D03B694B
:10302000013B3B613B695A1CFB689A637B6918460C
:103030001837BD4680BD80B582B000AF786039607A
:103040007B681B6C002B18D07B68DA687B681B6C74
:103050001A447B68DA607B68DA687B685B689A424E
:1030600003D37B681A687B68DA607B68D9687B6801
:103070001B6C1A46386801F06BFD00BF0837BD466F
:1030800080BD80B584B000AF7860FFF727F87B681B
:1030900093F84530FB7311E07B685B6A002B12D01C
:1030A0007B682433184600F071FC0346002B01D0E6
:1030B00000F046FDFB7B013BDBB2FB7397F90F3061
:1030C000002BE9DC00E000BF7B68FF2283F845208D
:1030D000FFF734F8FFF702F87B6893F84430BB73CE
:1030E00011E07B681B69002B12D07B6810331846F7
:1030F00000F04CFC0346002B01D000F021FDBB7B0F
:10310000013BDBB2BB7397F90E30002BE9DC00E02A
:1031100000BF7B68FF2283F84420FFF70FF800BF51
:103120001037BD4680BD80B584B000AF7860FEF733
:10313000D5FF7B689B6B002B02D10123FB6001E074
:103140000023FB60FEF7FAFFFB6818461037BD4608
:1031500080BD80B584B000AF7860FEF7BFFF7B68AC
:103160009A6B7B68DB6B9A4202D10123FB6001E022
:103170000023FB60FEF7E2FFFB6818461037BD46F0
:1031800080BD80B58EB004AFF860B9607A603B60F6
:103190007B6B002B0AD14FF0500383F31188BFF3F0
:1031A0006F8FBFF34F8F3B6200BFFEE7BB6B002BFF
:1031B0000AD14FF0500383F31188BFF36F8FBFF331
:1031C0004F8FFB6100BFFEE754233B613B69542BEB
:1031D0000AD04FF0500383F31188BFF36F8FBFF312
:1031E0004F8FBB6100BFFEE7BB6B002B1ED07B6B1C
:1031F000002B1BD0BB6B7B627B6A7A6B1A637B6A8A
:10320000022283F85120002303937B6A029307F183
:10321000140301933B6B00933B687A68B968F868C4
:1032200000F050F8786A00F0CDF801E000237B61EF
:103230007B6918462837BD4680BD80B58CB004AF89
:10324000F860B9603B601346FB80FB889B00184622
:10325000FFF744F878617B69002B0ED05420FFF70C
:103260003DF8F861FB69002B03D0FB697A691A63AA
:1032700005E07869FFF7F6F801E00023FB61FB69E0
:10328000002B17D0FB69002283F85120FA88002315
:103290000393FB690293FB6A0193BB6A00933B684B
:1032A000B968F86800F00EF8F86900F08BF80123AF
:1032B000BB6102E04FF0FF33BB61BB6918462037AA
:1032C000BD4680BD80B588B000AFF860B9607A6057
:1032D0003B603B6B1A6B7B6803F18043013B9B00B7
:1032E0001344BB61BB6923F00703BB61BB6903F0F7
:1032F0000703002B0AD04FF0500383F31188BFF36C
:103300006F8FBFF34F8F7B6100BFFEE70023FB6130
:1033100012E0BA68FB69134419783A6BFB691344ED
:1033200034330A461A70BA68FB6913441B78002BC1
:1033300006D0FB690133FB61FB690F2BE9D900E083
:1033400000BF3B6B002283F84320BB6A062B01D9E8
:103350000623BB623B6BBA6ADA623B6BBA6A5A6499
:103360003B6B00229A643B6B04331846FEF737FD33
:103370003B6B18331846FEF732FD3B6B3A6B1A6114
:10338000BB6AC3F107023B6B9A613B6B3A6B5A62B3
:103390003B6B0022DA643B6B002283F850203A68D2
:1033A000F968B869FEF7ACFD02463B6B1A60FB6A30
:1033B000002B02D0FB6A3A6B1A6000BF2037BD4673
:1033C00080BD000080B582B000AF7860FEF786FE59
:1033D0002A4B1B680133294A1360294B1B68002BB9
:1033E00009D1274A7B681360244B1B68012B10D13D
:1033F00000F0CAFB0DE0234B1B68002B09D1204BCA
:103400001B68DA6A7B68DB6A9A4202D81C4A7B68CE
:1034100013601D4B1B6801331B4A13607B68DB6A1A
:1034200001229A40194B1B681343184A13607B68AA
:10343000DA6A13469B0013449B00154A1A447B68C2
:10344000043319461046FEF7D6FCFEF777FE0D4B07
:103450001B68002B0ED00A4B1B68DA6A7B68DB6A9C
:103460009A4207D20B4B4FF080521A60BFF34F8F36
:10347000BFF36F8F00BF0837BD4680BDB40D00207D
:10348000B40C0020C00D0020D00D0020BC0D002089
:10349000B80C002004ED00E080B584B000AF786087
:1034A0000023FB607B68002B17D0134B1B68002B9D
:1034B0000AD04FF0500383F31188BFF36F8FBFF32F
:1034C0004F8FBB6000BFFEE700F07AF800217868FC
:1034D00000F0C0FC00F082F8F860FB68002B07D118
:1034E000064B4FF080521A60BFF34F8FBFF36F8FC0
:1034F00000BF1037BD4680BDDC0D002004ED00E0AC
:1035000080B58AB004AF0023BB6000237B603A46DD
:10351000391D07F10803184600F02EFE39687B6854
:10352000BA68029201930023009300230A461E49C1
:103530001E48FFF726FE03461D4A13601C4B1B68FE
:10354000002B02D001237B6101E000237B617B69BA
:10355000012B16D14FF0500383F31188BFF36F8F07
:10356000BFF34F8F3B6100BF124B4FF0FF321A6029
:10357000114B01221A60114B00221A60FEF73CFD2C
:103580000EE07B69B3F1FF3F0AD14FF0500383F3A4
:103590001188BFF36F8FBFF34F8FFB6000BFFEE753
:1035A00000BF1837BD4680BD505B0008593B00087E
:1035B000D80D0020D40D0020C00D0020B80D002033
:1035C00080B400AF044B1B680133034A136000BF93
:1035D000BD4680BC704700BFDC0D002080B584B0C4
:1035E00000AF0023FB600023BB60414B1B68002B36
:1035F0000AD14FF0500383F31188BFF36F8FBFF3ED
:103600004F8F3B6000BFFEE7FEF768FD384B1B683D
:10361000013B374A1360364B1B68002B61D1354B99
:103620001B68002B5DD02EE0334BDB68DB68FB6052
:10363000FB6818331846FEF739FCFB68043318465C
:10364000FEF734FCFB68DB6A01229A402B4B1B68B7
:1036500013432A4A1360FB68DA6A13469B0013443B
:103660009B00274A1A44FB68043319461046FEF7AC
:10367000C2FBFB68DA6A234B1B68DB6A9A4202D3FF
:10368000214B01221A601C4B1B68002BCCD1FB681C
:10369000002B01D000F016FB1C4B1B687B607B6885
:1036A000002B10D000F036F80346002B02D0164B4A
:1036B00001221A607B68013B7B607B68002BF1D1A3
:1036C000124B00221A60104B1B68002B09D00123FB
:1036D000BB600F4B4FF080521A60BFF34F8FBFF3A8
:1036E0006F8FFEF72BFDBB6818461037BD4680BDB7
:1036F000DC0D0020B40D0020740D0020BC0D002056
:10370000B80C0020B40C0020C80D0020C40D00200F
:1037100004ED00E080B586B000AF00237B61514B23
:103720001B68002B40F08D804F4B1B6801333B61C1
:103730004D4A3B6913603B69002B20D14B4B1B6802
:103740001B68002B0AD04FF0500383F31188BFF39E
:103750006F8FBFF34F8F3B6000BFFEE7434B1B688B
:10376000FB60434B1B68414A1360414AFB6813608E
:10377000404B1B6801333F4A136000F0A3FA3E4BF5
:103780001B683A699A424DD3384B1B681B68002B63
:1037900001D1012300E00023002B04D0364B4FF071
:1037A000FF321A603EE0314B1B68DB68DB68BB60B0
:1037B000BB685B687B603A697B689A4203D22E4A99
:1037C0007B6813602EE0BB6804331846FEF76EFB7F
:1037D000BB689B6A002B04D0BB6818331846FEF701
:1037E00065FBBB68DB6A01229A40244B1B681343CC
:1037F000224A1360BB68DA6A13469B0013449B009D
:103800001F4A1A44BB68043319461046FEF7F3FA00
:10381000BB68DA6A1B4B1B68DB6A9A42B4D301238C
:103820007B61B1E7174B1B68DA6A154913469B00A9
:1038300013449B000B441B68012B07D901237B61B8
:1038400004E0114B1B6801330F4A13600F4B1B68D8
:10385000002B01D001237B617B6918461837BD46D8
:1038600080BD00BFDC0D0020B80D00206C0D0020D5
:10387000700D0020CC0D0020D40D0020BC0D0020C8
:10388000B80C0020B40C0020C40D0020C80D00208E
:1038900080B487B000AF264B1B68002B03D0254BAC
:1038A00001221A603FE0234B00221A60224B1B6862
:1038B000FB60FB68B3FA83F3FB72FB7AC3F11F036F
:1038C0007B611E497A6913469B0013449B000B449D
:1038D0001B68002B0AD14FF0500383F31188BFF30C
:1038E0006F8FBFF34F8F7B6000BFFEE77A6913468F
:1038F0009B0013449B00114A13443B613B695B6886
:103900005A683B695A603B695A683B6908339A4276
:1039100004D13B695B685A683B695A603B695B68E4
:10392000DB68074A136000BF1C37BD4680BC704788
:10393000DC0D0020C80D0020BC0D0020B80C0020BC
:10394000B40C002080B584B000AF786039607B682B
:10395000002B0AD14FF0500383F31188BFF36F8F10
:10396000BFF34F8FFB6000BFFEE7074B1B681833A8
:1039700019467868FEF762FA0121386800F06AFAA1
:1039800000BF1037BD4680BDB40C002080B586B0A6
:1039900000AF78607B68DB68DB683B613B69002BCC
:1039A0000AD14FF0500383F31188BFF36F8FBFF339
:1039B0004F8FFB6000BFFEE73B6918331846FEF7E8
:1039C00075FA1D4B1B68002B1CD13B69043318464C
:1039D000FEF76CFA3B69DB6A01229A40174B1B68C1
:1039E0001343164A13603B69DA6A13469B0013447B
:1039F0009B00134A1A443B69043319461046FEF7EC
:103A0000FAF905E03B69183319460E48FEF7F3F959
:103A10003B69DA6A0C4B1B68DB6A9A4205D90123C1
:103A20007B610A4B01221A6001E000237B617B6904
:103A300018461837BD4680BDDC0D0020BC0D0020A7
:103A4000B80C0020740D0020B40C0020C80D00201C
:103A500080B483B000AF7860064B1A687B681A6048
:103A6000054B1A687B685A6000BF0C37BD4680BCA6
:103A7000704700BFCC0D0020B80D002080B588B085
:103A800000AF786039607B68002B0AD14FF050039B
:103A900083F31188BFF36F8FBFF34F8F3B6100BF7C
:103AA000FEE73B68002B0AD14FF0500383F31188E7
:103AB000BFF36F8FBFF34F8FFB6000BFFEE7FEF7D2
:103AC0000DFB1D4B1B68BB617B685B68BA69D31A31
:103AD0007B613B681B68B3F1FF3F02D10023FB61B0
:103AE00023E07B681A68154B1B689A4207D07B68F5
:103AF0005B68BA699A4202D30123FB6115E03B6817
:103B00001B687A699A420BD23B681A687B69D21AA1
:103B10003B681A607868FFF79BFF0023FB6104E0B5
:103B20003B6800221A600123FB61FEF707FBFB697B
:103B300018462037BD4680BDB80D0020CC0D0020B2
:103B400080B400AF034B01221A6000BFBD4680BCA9
:103B5000704700BFC80D002080B582B000AF78600C
:103B600000F052F8064B1B68012BF9D9054B4FF0BA
:103B700080521A60BFF34F8FBFF36F8FF0E700BF23
:103B8000B80C002004ED00E080B582B000AF002347
:103B90007B600CE07A6813469B0013449B00124A3A
:103BA00013441846FEF7FCF87B6801337B607B68A2
:103BB000062BEFD90D48FEF7F3F80D48FEF7F0F8A5
:103BC0000C48FEF7EDF80C48FEF7EAF80B48FEF754
:103BD000E7F80B4B054A1A600A4B054A1A6000BF0A
:103BE0000837BD4680BD00BFB80C0020440D002042
:103BF000580D0020740D0020880D0020A00D00201D
:103C00006C0D0020700D002080B582B000AF19E06F
:103C1000FEF764FA104BDB68DB687B607B6804337B
:103C20001846FEF743F90D4B1B68013B0B4A136026
:103C30000B4B1B68013B0A4A1360FEF77FFA78685A
:103C400000F010F8064B1B68002BE1D100BF00BF4D
:103C50000837BD4680BD00BF880D0020B40D002090
:103C60009C0D002080B584B000AF78607B6893F82D
:103C70005130002B08D17B681B6B1846FEF7F2FB16
:103C80007868FEF7EFFB18E07B6893F85130012B62
:103C900003D17868FEF7E6FB0FE07B6893F85130BC
:103CA000022B0AD04FF0500383F31188BFF36F8FBC
:103CB000BFF34F8FFB6000BFFEE700BF1037BD466C
:103CC00080BD000080B483B000AF0E4B1B681B6842
:103CD000002B01D1012300E00023002B04D00A4B6C
:103CE0004FF0FF321A6008E0064B1B68DB68DB68A8
:103CF0007B607B685B68044A136000BF0C37BD467D
:103D000080BC70476C0D0020D40D002080B483B0BF
:103D100000AF0B4B1B68002B02D101237B6008E036
:103D2000084B1B68002B02D102237B6001E00023BB
:103D30007B607B6818460C37BD4680BC704700BF6F
:103D4000C00D0020DC0D002080B586B000AF78608B
:103D50007B683B6100237B617B68002B6ED03A4B14
:103D60001B683A699A420AD04FF0500383F31188D6
:103D7000BFF36F8FBFF34F8FFB6000BFFEE73B6960
:103D80009B6C002B0AD14FF0500383F31188BFF3D3
:103D90006F8FBFF34F8FBB6000BFFEE73B699B6C2B
:103DA0005A1E3B699A643B69DA6A3B695B6C9A42CA
:103DB00044D03B699B6C002B40D13B6904331846CF
:103DC000FEF774F80346002B15D13B69DA6A1F49E8
:103DD00013469B0013449B000B441B68002B0AD125
:103DE0003B69DB6A012202FA03F3DA43184B1B68D2
:103DF0001340174A13603B695A6C3B69DA623B69AE
:103E0000DB6AC3F107023B699A613B69DB6A012205
:103E10009A400F4B1B6813430D4A13603B69DA6AE3
:103E200013469B0013449B00084A1A443B69043321
:103E300019461046FDF7DFFF01237B617B691846B9
:103E40001837BD4680BD00BFB40C0020B80C002060
:103E5000BC0D002080B584B000AF78603960294B7C
:103E60001B68FB60284B1B6804331846FEF71EF8DE
:103E70000346002B0BD1244B1B68DB6A012202FA9C
:103E800003F3DA43214B1B681340204A13607B681D
:103E9000B3F1FF3F0AD13B68002B07D01A4B1B68D8
:103EA000043319461A48FDF7A6FF26E0FA687B6836
:103EB0001344BB60144B1B68BA685A60BA68FB684D
:103EC0009A4209D2134B1A680F4B1B6804331946E8
:103ED0001046FDF7B3FF10E00F4B1A680A4B1B6842
:103EE000043319461046FDF7A9FF0C4B1B68BA684E
:103EF0009A4202D2094ABB68136000BF1037BD4620
:103F000080BD00BFB80D0020B40C0020BC0D002007
:103F1000A00D0020700D00206C0D0020D40D00209D
:103F200080B582B000AF4E4B9B88002B02D04C4B2B
:103F300000229A800023FB710AE0FA79484911F8BF
:103F400022306FF3000301F82230FB790133FB715B
:103F5000FB79002BF1D080214248FCF78FFB034610
:103F6000002B04D13E4A137843F001031370002361
:103F7000FB7166E0FB793A4A12F82330C3F3000381
:103F8000DBB21846FB79364A12F82330C3F300033C
:103F9000DAB2FB79324911F82330C3F3C003DBB244
:103FA0005340DBB20340DBB2FA7903F00103D8B22D
:103FB0002B4911F8223060F3410301F82230FB79DC
:103FC000274A12F82330C3F30003DAB2FB792449FD
:103FD00011F82330C3F34003DBB25340D9B2FB796D
:103FE0001F4A12F82330C3F3C003DBB2FA794B4007
:103FF000D8B21B4911F8223060F3820301F8223055
:10400000FB79FA79164911F82330C3F30003D8B2CB
:10401000134911F8223060F3C30301F82230FB7911
:104020000F4A12F82330C3F3C003DBB2002B05D1D3
:10403000FB790B4A9B00134400225A80FB79013321
:10404000FB71FB79002B95D000F00EF800F01EF804
:1040500000F02EF8024B9B8818460837BD4680BDFD
:10406000E00D0020000C014080B400AF064B1B782F
:1040700003F00203DBB2002B02D0034B01229A8033
:1040800000BFBD4680BC7047E00D002080B400AF8B
:10409000064B1B7803F00403DBB2002B02D0034B6A
:1040A00002229A8000BFBD4680BC7047E00D002010
:1040B00080B400AF0D4B1B7803F00803DBB2002B7C
:1040C00010D00A4B5B883B2B05D8084B5B8801332B
:1040D0009AB2064B5A80054B5B883B2B02D1034BAF
:1040E00003229A8000BFBD4680BC7047E00D0020CF
:1040F00080B500AF00224FF400510A48FCF7D5FA12
:10410000094B00221A70094B00221A80084B00222A
:104110001A70084B00221A70074B00221A7000BF59
:1041200080BD00BF000C0140E70D0020E80D00201D
:10413000EA0D0020EB0D0020E60D002080B500AF59
:1041400000224FF400510A48FCF7AFFA094B002255
:104150001A70084B01229A70064B0022DA70054B48
:1041600000221A71034B00225A7100BF80BD00BFAC
:10417000000C0140EC0D002080B485B000AFF86069
:10418000B9607A60FB68064A1A60BB68054A1A6023
:104190007B6880221A6000BF1437BD4680BC704720
:1041A000040E0020580E0020B0B59AB000AF254B89
:1041B00007F158040FCB84E80F0007F158030021E2
:1041C0001846FDF7FAFC03461F4A13601F4B07F120
:1041D0003C041D460FCD0FC495E8070084E8070096
:1041E00007F13C0300211846FDF787FC0346184AF7
:1041F0001360184B07F120041D460FCD0FC495E83E
:10420000070084E8070007F1200300211846FDF7A6
:1042100074FC0346104A1360104B3C1D1D460FCD25
:104220000FC495E8070084E807003B1D00211846ED
:10423000FDF763FC03460A4A136000BF6837BD46BA
:10424000B0BD00BF7C5B0008000E00208C5B000846
:10425000F40D0020A85B0008F80D0020C45B0008E6
:10426000FC0D002080B582B000AF78600120FDF722
:1042700090FCFBE780B584B000AF7860FFF750FE9C
:104280000346FB81FB89002B0FD00A4B1B68F98981
:1042900000221846FDF7BAFCB860BB68002B02D0BC
:1042A000054800F0F1FC0023FB811420FDF771FCB0
:1042B000E4E700BF000E0020E05B000880B586B098
:1042C00000AF78600F4B1B681846FDF753FD03469F
:1042D000002B02D00C4800F0D7FC0A4B196807F1FC
:1042E0000C0364221846FDF7D1FCFB68102B05D1A6
:1042F0003B691946054800F041FCE3E7044800F03B
:10430000C3FCDFE7000E0020005C0008205C000812
:104310002C5C000880B588B000AF07F110030022C4
:104320001A605A609A60DA60344B9B69334A43F0F2
:1043300020039361314B9B6903F02003FB60FB6812
:104340002E4B9B692D4A43F0040393612B4B9B69D1
:1043500003F00403BB60BB68284B9B69274A43F00A
:1043600008039361254B9B6903F008037B607B681E
:104370000022B0212248FCF798F9002243F2030101
:104380002048FCF792F9B0233B6101237B610023B5
:10439000BB610223FB6107F1100319461848FBF7C4
:1043A000E9FF43F203033B6101237B610023BB610F
:1043B0000223FB6107F1100319461248FBF7DAFFED
:1043C0004FF480433B6100237B610023BB6107F115
:1043D000100319460B48FBF7CDFF80233B610023F8
:1043E0007B610123BB6107F1100319460548FBF708
:1043F000C1FF00BF2037BD4680BD00BF0010024096
:1044000000080140000C014080B400AF314B002295
:104410001A60304B01225A602E4B01229A602D4BBC
:104420000122DA602B4B00221A612A4B01225A61C9
:10443000284B00229A61274B0022DA61254B00228B
:104440001A62244B00225A62224B01229A62214BAB
:104450000022DA621F4B01221A631E4B01225A63AB
:104460001C4B01229A631B4B0022DA63194B00227A
:104470001A64184B00225A64164B01229A64154B99
:104480000122DA64134B01221A65124B00225A658D
:10449000104B01229A650F4B0022DA650D4B00226A
:1044A0001A660C4B01225A660A4B00229A66094B87
:1044B0000122DA66074B01221A67064B01225A676E
:1044C000044B00229A67034B0022DA6700BFBD4607
:1044D00080BC70475810002080B584B000AFF860F1
:1044E000B9607A607B689AB24FF6FF73B968044886
:1044F000FDF717F97B6818461037BD4680BD00BF31
:104500005C11002080B500AFFBF722FE00F024F81C
:10451000FFF700FF00F0E4F900F054FA0B4800F058
:10452000B3FBFFF771FFFFF7E3FDFFF707FE084856
:10453000FCF749FD01224FF480510648FCF7B5F81D
:10454000FFF732FEFDF7D2FAFEE700BF505C00082D
:104550001C110020000C014080B590B000AF07F1A5
:10456000180328220021184600F000FB3B1D002202
:104570001A605A609A60DA601A610123BB614FF4D5
:104580008033FB6100233B620123BB6202237B6318
:104590004FF48033BB634FF4E013FB6307F1180360
:1045A0001846FCF79BF80346002B01D000F028F8D2
:1045B0000F237B600223BB600023FB604FF480630A
:1045C0003B6100237B613B1D02211846FCF706FB83
:1045D0000346002B01D000F013F800BF4037BD4662
:1045E00080BD80B582B000AF78607B681B68B3F196
:1045F000804F01D1FBF7C2FD00BF0837BD4680BD2B
:1046000080B400AF00BFBD4680BC704780B584B0A9
:1046100000AF184B9B69174A43F001039361154B98
:104620009B6903F00103BB60BB68124BDB69114A55
:1046300043F08053D3610F4BDB6903F080537B6001
:104640007B6800220F216FF00100FBF768FE0A4B28
:104650005B68FB60FB6823F0E063FB60FB6843F092
:104660008073FB60044AFB68536000BF1037BD468F
:1046700080BD00BF001002400000014080B58CB03A
:1046800000AF78600023FB620023BB6200227968E0
:104690001C20FBF744FE1C20FBF75DFE204BDB6972
:1046A0001F4A43F00103D3611D4BDB6903F0010393
:1046B000FB60FB6807F1100207F11403114618466E
:1046C000FCF708FCFCF7DEFB03465B00FB62FB6AC1
:1046D000144AA2FB03239B0C013BBB62124B4FF01D
:1046E00080421A60104B40F2E732DA600E4ABB6A31
:1046F00053600D4B00221A610B4B00229A600A484E
:10470000FCF736FC0346002B04D10748FCF75BFCA2
:10471000034600E0012318463037BD4680BD00BF88
:104720000010024083DE1B43D810002080B400AF8D
:1047300000BFBD4680BC704780B400AFFEE780B4C8
:1047400000AFFEE780B400AFFEE780B400AFFEE745
:1047500080B400AF00BFBD4680BC704780B500AFDD
:104760000248FCF753FC00BF80BD00BFD8100020FA
:1047700080B500AF0248FCF749FC00BF80BD00BF18
:104780001C11002080B586B000AFF860B9607A6077
:1047900000237B610AE0AFF300800146BB685A1C2E
:1047A000BA60CAB21A707B6901337B617A697B682F
:1047B0009A42F0DB7B6818461837BD4680BD000082
:1047C00080B584B000AF7860114B1B68002B02D11C
:1047D0000F4B104A1A600E4B1B68FB600C4B1A689B
:1047E0007B6813446A46934207D900F087F9034671
:1047F0000C221A604FF0FF3306E0054B1A687B6805
:104800001344034A1360FB6818461037BD4680BD49
:1048100018110020B811002080B483B000AF786078
:104820004FF0FF3318460C37BD4680BC704780B44C
:1048300083B000AF786039603B684FF400525A6033
:10484000002318460C37BD4680BC704780B483B047
:1048500000AF7860012318460C37BD4680BC704716
:1048600080B485B000AFF860B9607A600023184664
:104870001437BD4680BC704780B400AF154B1B6831
:10488000144A43F001031360124B5A681149124B4A
:1048900013404B600F4B1B680E4A23F0847323F4C4
:1048A000803313600B4B1B680A4A23F48023136088
:1048B000084B5B68074A23F4FE035360054B4FF433
:1048C0001F029A60054B4FF000629A6000BFBD4620
:1048D00080BC7047001002400000FFF800ED00E0CF
:1048E00080B586B000AF07F1080300221A605A6055
:1048F0009A60DA603B4600221A605A601C4B1D4ADF
:104900001A601B4B47225A60194B00229A60184BC1
:104910006322DA60164B00221A61154B00229A615D
:104920001348FCF725FB0346002B01D0FFF768FE78
:104930004FF48053BB6007F1080319460C48FCF79D
:104940006DFC0346002B01D0FFF75AFE00233B60AD
:1049500000237B603B4619460548FCF73FFE0346B3
:10496000002B01D0FFF74CFE00BF1837BD4680BDBD
:104970001C1100200004004080B584B000AF7860B6
:104980007B681B680D4A934213D10D4BDB690C4ABF
:1049900043F00203D3610A4BDB6903F00203FB60BF
:1049A000FB68002205211D20FBF7B9FC1D20FBF749
:1049B000D2FC00BF1037BD4680BD00BF00040040E0
:1049C0000010024080B500AF114B124A1A60104B24
:1049D0004FF4E1325A600E4B00229A600C4B0022D9
:1049E000DA600B4B00221A61094B0C225A61084B0A
:1049F00000229A61064B0022DA610548FCF744FE6A
:104A00000346002B01D0FFF7FBFD00BF80BD00BFB8
:104A10005C1100200038014080B588B000AF78609C
:104A200007F1100300221A605A609A60DA607B680E
:104A30001B681C4A934231D11B4B9B691A4A43F4B1
:104A400080439361184B9B6903F48043FB60FB68D0
:104A5000154B9B69144A43F004039361124B9B6905
:104A600003F00403BB60BB684FF400733B61022397
:104A70007B610323FB6107F1100319460B48FBF729
:104A800079FC4FF480633B6100237B610023BB61B1
:104A900007F1100319460548FBF76CFC00BF2037EF
:104AA000BD4680BD003801400010024000080140B2
:104AB000002103E00B4B5B58435004310A480B4B79
:104AC00042189A42F6D30A4A02E0002342F8043B15
:104AD000084B9A42F9D3FFF7CFFE00F015F8FFF725
:104AE00011FD7047105D00080000002074000020D8
:104AF00074000020B4110020FEE70000014B18688C
:104B0000704700BF1000002070B500260C4D0D4C02
:104B1000641BA410A64209D101F006F800260A4D34
:104B20000A4C641BA410A64205D170BD55F8043B85
:104B300098470136EEE755F8043B98470136F2E70F
:104B4000085D0008085D0008085D00080C5D0008AD
:104B50000A44914200F1FF3300D1704710B511F8BB
:104B6000014B914203F8014FF9D110BD03460244B5
:104B7000934200D1704703F8011BF9E70FB40A4BC9
:104B800013B51C6824B1A36913B9204600F05EFA7E
:104B900005AB2046049AA168019300F029FC02B0FD
:104BA000BDE8104004B070471000002070B50E46FC
:104BB000054618B183690BB900F048FAAB69AC68D7
:104BC00013B9284600F042FA2C4B9C4220D16C6865
:104BD000636EDB0705D4A389980502D4A06D00F0AD
:104BE000D3FAA38919071DD52369DBB1013EA36858
:104BF00016F8011F013BA36039BB002B38DA2246AF
:104C00000A21284600F048F8013011D00A2511E0A9
:104C10001B4B9C4201D1AC68DAE71A4B9C4208BF9F
:104C2000EC68D5E72146284600F088F80028DDD05A
:104C30004FF0FF35636EDA0705D4A3899B0502D4D4
:104C4000A06D00F0A2FA284670BD002B04DAA2691C
:104C50009A4206DC0A2904D023685A1C2260197083
:104C6000C5E72246284600F017F80130BFD1DFE73C
:104C70000A2523685A1C22601D70DBE7945C00083B
:104C8000B45C0008745C0008024B01461868FFF72A
:104C90008DBF00BF10000020F8B50E461446054633
:104CA00018B183690BB900F0D1F9214B9C422BD18B
:104CB0006C68A369A360A3891A072FD523696BB316
:104CC00023692068F6B2C01A63693746834204DC60
:104CD0002146284600F026F930BBA3680130013B8D
:104CE000A36023685A1C22601E706369834204D04B
:104CF000A389DB0706D50A2E04D12146284600F0F9
:104D000011F988B93846F8BD0A4B9C4201D1AC680C
:104D1000CFE7094B9C4208BFEC68CAE7214628460A
:104D200000F00CF80028CBD04FF0FF37EAE700BFC7
:104D3000945C0008B45C0008745C0008324B70B5E9
:104D40001D6806460C4625B1AB6913B9284600F02C
:104D50007DF92E4B9C420FD16C68A389B4F90C20CD
:104D600019072CD4DD0611D40923336042F0400327
:104D70004FF0FF30A3813EE0254B9C4201D1AC684F
:104D8000EBE7244B9C4208BFEC68E6E7580712D5D6
:104D9000616B41B104F14403994202D0304600F006
:104DA00059FA00236363A38923F02403A38100231A
:104DB000636023692360A38943F00803A381236907
:104DC0004BB9A38903F42073B3F5007F03D02146C8
:104DD000304600F0FFF9A089B4F90C2010F001036F
:104DE0000AD00023A36063695B42A361236943B9CE
:104DF00010F08000BAD170BD810758BF6369A3600D
:104E0000F4E70020F7E700BF10000020945C0008E2
:104E1000B45C0008745C00088A892DE9F0410546FD
:104E200010070C4658D44B68002B05DC0B6C002B8C
:104E300002DC0020BDE8F081E66A002EF9D00023F4
:104E400012F480522F682B6032D0606DA3895A070C
:104E500005D56368C01A636B0BB1236CC01A0023BD
:104E60000246E66A2846216AB047431CA38906D158
:104E700029681D292CD82A4ACA40D60728D50022DD
:104E800062602269D904226004D5421C01D12B68DA
:104E900003B96065616B2F600029CAD004F1440337
:104EA000994202D0284600F0D5F900206063C1E79E
:104EB000216A01232846B047411CC7D12B68002B2B
:104EC000C4D01D2B01D0162B01D12F60B1E7A389CF
:104ED00043F04003A381ADE70F69002FA9D09307EA
:104EE00018BF00230E6808BF4B69A6EB07080F60C8
:104EF0008B60B8F1000F9CDD43463A462846216A94
:104F0000A66AB047002806DCA3894FF0FF3043F0C3
:104F10004003A3818EE70744A8EB0008E9E700BF40
:104F20000100402038B50B6905460C4613B9002531
:104F3000284638BD18B183690BB900F087F8144BC7
:104F40009C421BD16C68B4F90C30002BEFD0626E20
:104F5000D00704D4990502D4A06D00F015F92846B5
:104F60002146FFF759FF636E0546DA07E0D4A389AF
:104F70009B05DDD4A06D00F008F9D9E7054B9C42F4
:104F800001D1AC68DFE7044B9C4208BFEC68DAE76C
:104F9000945C0008B45C0008745C0008002310B541
:104FA0000446C0E90033C0E904338360818143666D
:104FB000C2818361194608225C30FFF7D7FD054B9B
:104FC00024626362044BA362044BE362044B2363D9
:104FD00010BD00BF9D590008BF590008F7590008CF
:104FE0001B5A0008014900F0AFB800BF254F000868
:104FF00070B568254A1E55430E4605F1740100F050
:1050000075F9044640B10021C0E900160C30A060DB
:1050100005F16802FFF7AAFD204670BD014800F0C7
:10502000B3B800BFAC110020014800F0AEB800BF1B
:10503000AC110020014800F0A7B800BFA711002064
:10504000014800F0A2B800BFA711002010B5044627
:10505000FFF7F0FFA3691BB1BDE81040FFF7F0BFF9
:10506000C4E912332365134B134A1B68A262A3429F
:1050700008BF0123204608BFA36100F01FF860604D
:10508000204600F01BF8A060204600F017F8002230
:105090000421E0606068FFF781FF01220921A06818
:1050A000FFF77CFF02221221E068FFF777FF012360
:1050B000A361D1E7705C0008E54F0008F8B507462A
:1050C000FFF7ACFF1E4B1E68B36913B93046FFF7FC
:1050D000BDFF4836D6E90134013B03D533680BB335
:1050E0003668F7E7B4F90C50D5B9164B04F15800FF
:1050F000E360656600F047F8FFF796FF082229464F
:10510000C4E90155C4E904552560A56104F15C00BA
:10511000FFF72CFDC4E90D55C4E912552046F8BD32
:105120006834D9E704213846FFF762FF044630604F
:105130000028D5D1FFF778FF0C233B60EEE700BFD6
:10514000705C00080100FFFF2DE9F8430646884621
:10515000002700F14804D4E90195B9F1010905D50A
:105160002468002CF7D13846BDE8F883AB89012BC1
:1051700007D9B5F90E30013303D029463046C04770
:1051800007436835E9E770477047704770B50E46CA
:10519000B1F90E10144600291D4696B007DA002317
:1051A0002B60B3891A0610D44FF480630EE06A4670
:1051B00000F05AFC0028F2DB019A02F47042A2F5DA
:1051C00000535A425A412A60EEE7402300202360F0
:1051D00016B070BD8B8973B59D0706460C4607D582
:1051E00004F14703236023610123636102B070BDB2
:1051F0006A4601ABFFF7CAFF00990546304600F04A
:1052000075F848B9B4F90C309A05EFD423F00303CC
:1052100043F00203A381E3E70D4BB362A38920604F
:1052200043F08003A381009B20616361019B5BB11C
:105230003046B4F90E1000F029FC28B1A38923F000
:10524000030343F00103A381A0890543A581CDE7B2
:10525000E54F000838B50546002943D051F8043C15
:105260000C1F002BB8BFE41800F040FC1E4A136866
:10527000104633B9636014602846BDE8384000F03A
:105280003BBCA3420AD921686218934201BF1A6845
:105290005B685218226063600460EDE71A465B6841
:1052A0000BB1A342FAD911685018A0420BD1206863
:1052B0000144501883421160DED118685B680144D4
:1052C00011605360D8E702D90C232B60D4E7206823
:1052D00021188B4201BF19685B680918216063605F
:1052E0005460C9E738BD00BF9C110020F8B5CD1C43
:1052F00025F0030508350C2D38BF0C25002D06467A
:1053000001DBA94203D90C2333600020F8BD00F073
:10531000EDFB21490A6814469CB9204F3B6823B92C
:105320002146304600F02AFB38602946304600F01E
:1053300025FB431C23D10C233046336000F0DCFBFB
:10534000E3E723685B1B17D40B2B03D923601C44B2
:10535000256004E06368A2420CBF0B6053603046D6
:1053600000F0CAFB04F10B00231D20F00700C21A55
:10537000CCD01B1AA350C9E722466468CCE7C41CF2
:1053800024F00304A042E3D0211A304600F0F6FADC
:105390000130DDD1CFE700BF9C110020A01100201B
:1053A000936810B4013B002B936007DA9469A34221
:1053B00001DB0A2902D110BCFFF76EBC1368581C30
:1053C00010601970084610BC7047F8B506460F46C5
:1053D0001446D518AC4201D1002007E03A463046C9
:1053E00014F8011BFFF7DCFF431CF3D1F8BD0000EC
:1053F0002DE9F04F0D461446984606469DB018B16B
:1054000083690BB9FFF722FE894B9D421BD175685A
:105410006B6ED90705D4AB899A0502D4A86DFFF746
:10542000B3FEAB891B0701D52B69EBB92946304682
:10543000FFF784FCC0B16B6EDC070ED54FF0FF3078
:105440001DB0BDE8F08F7B4B9D4201D1B568DFE711
:10545000794B9D4208BFF568DAE7AB899805EDD432
:10546000A86DFFF792FEE9E70023099320238DF84A
:10547000293030234FF00109CDF80C80DFF8BC81D2
:105480008DF82A3023469A4613F8012B0AB1252AB3
:10549000F9D1BAEB040B0BD05B46224629463046C5
:1054A000FFF793FF013000F0AA80099A5A4409924D
:1054B0009AF80030002B00F0A28000234FF0FF325A
:1054C000CDE905230AF1010A049307938DF85330BF
:1054D0001A935446052214F8011B584800F0F8FAB4
:1054E000049AD8B9D10644BF20238DF8533013074E
:1054F00044BF2B238DF853309AF800302A2B15D057
:10550000544600204FF00A0C079A214611F8013B3F
:10551000303B092B4ED9B0B1079214E0A0EB080341
:1055200009FA03F31343A2460493D2E7039B191D20
:105530001B680391002BBBBF5B4242F00202079342
:105540000793B8BF049223782E2B0CD163782A2BB3
:1055500035D1039B02341A1D1B680392002BB8BF80
:105560004FF0FF330593DFF8E4A003225046217883
:1055700000F0AEFA40B14023A0EB0A0003FA00F0BD
:10558000049B01340343049314F8011B06222C48A6
:105590008DF8281000F09CFA00283FD0294B1BBB47
:1055A000039B073323F0070308330393099B3B4412
:1055B000099367E70C4601200CFB0232A5E70023A4
:1055C0004FF00A0C194601340593204610F8012BC0
:1055D000303A092A03D9002BC5D00591C3E7044608
:1055E00001230CFB0121F0E703AB00932A46304670
:1055F000154B04A9AFF300800746781CD6D16B6E1B
:10560000D90705D4AB899A0502D4A86DFFF7BDFD73
:10561000AB895B063FF512AF099811E703AB009326
:105620002A463046084B04A900F082F8E4E700BFA0
:10563000945C0008B45C0008745C0008D45C00084A
:10564000DE5C000800000000CB530008DA5C0008B4
:105650002DE9F047164699468A680B69074693423A
:10566000B8BF1346336091F843200C46DDF8208024
:105670000AB1013333602368990642BF33680233AD
:105680003360256815F0060506D104F1190AE368B0
:1056900032689B1AAB4228DC94F84320131E226820
:1056A00018BF012392062DD44946384604F143021F
:1056B000C047013020D02368E56803F00603042BBF
:1056C00018BF002532684FF00006A36808BFAD1A66
:1056D000226908BF25EAE5759342C4BF9B1AED18FD
:1056E0001A34B5421AD1002008E001235246494637
:1056F0003846C047013003D14FF0FF30BDE8F08796
:105700000135C4E73020E11881F843005A1C94F8B1
:1057100045102244023382F84310C5E70123224694
:1057200049463846C0470130E6D00136D9E7000087
:105730002DE9FF470C46277E9146782F80469A46F2
:105740000C9904F1430207D8622F0AD8002F00F009
:10575000D980582F00F0A48004F1420684F84270EA
:105760003AE0A7F16303152BF6D801A050F823F017
:10577000C9570008DD570008595700085957000855
:105780005957000859570008DD57000859570008B5
:10579000595700085957000859570008EB58000896
:1057A0000D580008CD5800085957000859570008EF
:1057B0000D590008595700080D580008595700089E
:1057C00059570008D55800080B6804F142061A1D05
:1057D0001B680A6084F842300123A4E02568086849
:1057E0002E0600F104030AD505680B60002D03DACC
:1057F0002D236D4284F843300A235E4819E015F0EA
:10580000400F05680B6018BF2DB2EFE70B682568E5
:10581000181D0860280601D51D6802E06906FBD541
:105820001D886F2F0CBF08230A235248002184F8DB
:1058300043106668002EA8BF2168A660A4BF21F0AF
:10584000040121600DB9002E4DD01646B5FBF3F1D1
:1058500003FB1157C75D06F8017D2F46BB420D467D
:10586000F4D9082B0BD12368DF0708D523696168B9
:105870009942DEBF302306F8013C06F1FF36921B49
:1058800022614B4621464046CDF800A003AAFFF70F
:10589000DFFE01304CD14FF0FF3004B0BDE8F0879F
:1058A000344884F845700E68236856F8045B1F0678
:1058B0000E6014D5D90744BF43F0200323601DB9FF
:1058C000236823F0200323601023AFE7236843F00D
:1058D000200323607823284884F84530E3E75E06F8
:1058E00048BFADB2E6E71646BBE70B6826681D1D4C
:1058F00060690D6035061B6801D5186002E071060D
:10590000FBD51880002316462361BAE70B681A1DE1
:105910000A601E6800213046626800F0D9F808B1BC
:10592000801B606063682361002384F84330A8E72C
:105930003246494640462369D0470130ABD0236800
:105940009B0713D4E068039B9842B8BF1846A4E7AE
:105950000123324649464046D04701309BD00135AD
:10596000E36803995B1AAB42F2DCEBE7002504F134
:105970001906F5E7E55C0008F65C000838B5002379
:10598000054D044608462B60FEF71AFF431C02D162
:105990002B6803B1236038BDB011002010B50C4650
:1059A000B1F90E1000F0AEF80028ABBF636DA3890B
:1059B0001B1823F48053ACBF6365A38110BD2DE990
:1059C000F0411F468B890546DB050C46164605D57A
:1059D00002230022B1F90E1000F068F8A3893246C4
:1059E00023F48053A38128463B46B4F90E10BDE84A
:1059F000F04100F017B810B50C46B1F90E1000F0E8
:105A000055F8431CA38915BF606523F4805343F404
:105A10008053A38118BFA38110BDB1F90E1000F00F
:105A200013B8000038B50446084611460022054D5B
:105A30002A601A46FEF750FD431C02D12B6803B1C1
:105A4000236038BDB011002038B50023054D044651
:105A500008462B60FEF7E0FE431C02D12B6803B121
:105A6000236038BDB011002038B50023064D044630
:105A7000084611462B60FEF7DAFE431C02D12B6864
:105A800003B1236038BD00BFB011002038B500233A
:105A9000054D044608462B60FEF7D8FE431C02D194
:105AA0002B6803B1236038BDB011002038B504461F
:105AB000084611460022054D2A601A46FEF7D0FE20
:105AC000431C02D12B6803B1236038BDB011002004
:105AD000034610B5C9B202449342184601D10020D2
